:1000000045C0000053C0000051C000004FC00000B8
:100010004DC00000EDC0000049C0000047C0000016
:1000200045C0000043C0000041C000003FC00000C8
:100030003DC000003BC0000039C0000037C00000D8
:1000400035C0000033C00000A6C000002FC0000073
:100050002DC000002BC0000029C0000027C00000F8
:1000600025C0000023C0000021C000001FC0000008
:100070001DC000001BC0000019C0000017C0000018
:1000800015C0000013C0000011C0000011241FBEE5
:10009000CFEFD0E1DEBFCDBF21E0A0E0B1E001C0F5
:1000A0001D92A130B207E1F7DBD0E4C0A9CF1092D6
:1000B0009B0088E98AB986E08093950010929000B1
:1000C00087E689B908955D9BFECF8CB90895EFE965
:1000D000FFE03197F1F700C0000015BA000094E08E
:1000E00095BB00C000C08093620000C015BA00003C
:1000F00008952FEF86E791E0215080409040E1F78E
:1001000000C0000080E3E3DF8FE39CE90197F1F793
:1001100000C0000080E3DBDF8FE193E00197F1F79F
:1001200000C0000080E3D3DF8FE99FE00197F1F783
:1001300000C0000088E3CBDF95ED9A95F1F7000051
:100140008CE0C5DF25ED2A95F1F7000081E0BFDFE7
:1001500088E08A95F1F7000086E0B9DF8FE99FE03B
:100160000197F1F700C000000895EFE9FFE0319733
:10017000F1F700C0000091E095BB000095E095BB51
:1001800000C000C08093620000C015BAF5E0FA9587
:10019000F1F7000008951F920F920FB60F921124ED
:1001A0000BB60F922F933F934F935F936F937F9371
:1001B0008F939F93AF93BF93EF93FF938CB18093F3
:1001C0000001D3DF809100017EDFFF91EF91BF91AD
:1001D000AF919F918F917F916F915F914F913F91DF
:1001E0002F910F900BBE0F900FBE0F901F90189580
:1001F0001F920F920FB60F9211240BB60F922F93EE
:100200003F934F935F936F937F938F939F93AF939E
:10021000BF93EF93FF932FEF86E791E0215080404B
:100220009040E1F700C000000C9B02C081E04FDF6E
:10023000FF91EF91BF91AF919F918F917F916F91BE
:100240005F914F913F912F910F900BBE0F900FBE7A
:100250000F901F90189583E08ABF80E189BF0895B1
:100260008FEF8093610084BB22DF43DFF4DF80E8FF
:080270008FBFFFCFF894FFCF10
:00000001FF
